{
  "transactions": [
    {
      "hash": "0x1e845d05c48c4b45d71c235b22a6b80f83fd26c59be5f47445a3d004227fb140",
      "transactionType": "CALL",
      "contractName": null,
      "contractAddress": "0x60b5cc9c3a6bb42a293cd445d67de23ccda442c3",
      "function": "createRental(uint256,address,uint256,uint256,uint256,string)",
      "arguments": [
        "5",
        "0x251d8803f71a8402dD96893E0709588e99F6267c",
        "500000000000000000",
        "100000000000000000",
        "12",
        "ipfs://bafkreierpf7nj3z6nyzk2ift5hsdppcxxdqbmzbhv2xjkagvkpibxp2yga"
      ],
      "transaction": {
        "from": "0x251d8803f71a8402dd96893e0709588e99f6267c",
        "to": "0x60b5cc9c3a6bb42a293cd445d67de23ccda442c3",
        "gas": "0x7620c",
        "value": "0x16345785d8a0000",
        "input": "0xdb2bac130000000000000000000000000000000000000000000000000000000000000005000000000000000000000000251d8803f71a8402dd96893e0709588e99f6267c00000000000000000000000000000000000000000000000006f05b59d3b20000000000000000000000000000000000000000000000000000016345785d8a0000000000000000000000000000000000000000000000000000000000000000000c00000000000000000000000000000000000000000000000000000000000000c00000000000000000000000000000000000000000000000000000000000000042697066733a2f2f6261666b72656965727066376e6a337a366e797a6b326966743568736470706378786471626d7a62687632786a6b6167766b706962787032796761000000000000000000000000000000000000000000000000000000000000",
        "nonce": "0x1c",
        "chainId": "0xc352"
      },
      "additionalContracts": [],
      "isFixedGasLimit": false
    }
  ],
  "receipts": [],
  "libraries": [],
  "pending": [
    "0x1e845d05c48c4b45d71c235b22a6b80f83fd26c59be5f47445a3d004227fb140"
  ],
  "returns": {},
  "timestamp": 1745473995,
  "chain": 50002,
  "commit": "0236e55"
}