{
  "transactions": [
    {
      "hash": "0x6785cfb1a73c6c1b550394783567abe407e56733de08965545094ac62f9c46eb",
      "transactionType": "CALL",
      "contractName": null,
      "contractAddress": "0x60b5cc9c3a6bb42a293cd445d67de23ccda442c3",
      "function": "grantRole(bytes32,address)",
      "arguments": [
        "0x8162f2d0a72b96ba5894e27f73d96591f1c0c2756818850eaab7404654388817",
        "0x251d8803f71a8402dD96893E0709588e99F6267c"
      ],
      "transaction": {
        "from": "0x251d8803f71a8402dd96893e0709588e99f6267c",
        "to": "0x60b5cc9c3a6bb42a293cd445d67de23ccda442c3",
        "gas": "0xa5d3",
        "value": "0x0",
        "input": "0x2f2ff15d8162f2d0a72b96ba5894e27f73d96591f1c0c2756818850eaab7404654388817000000000000000000000000251d8803f71a8402dd96893e0709588e99f6267c",
        "nonce": "0x18",
        "chainId": "0xc352"
      },
      "additionalContracts": [],
      "isFixedGasLimit": false
    },
    {
      "hash": "0xd5240b859f5847cf33b9a55ec751376dd0dc5f24194a94446f62f0236013a991",
      "transactionType": "CALL",
      "contractName": null,
      "contractAddress": "0x60b5cc9c3a6bb42a293cd445d67de23ccda442c3",
      "function": "createRental(uint256,address,uint256,uint256,uint256,string)",
      "arguments": [
        "4",
        "0x251d8803f71a8402dD96893E0709588e99F6267c",
        "500000000000000000",
        "1000000000000000000",
        "12",
        "ipfs://bafkreierpf7nj3z6nyzk2ift5hsdppcxxdqbmzbhv2xjkagvkpibxp2yga"
      ],
      "transaction": {
        "from": "0x251d8803f71a8402dd96893e0709588e99f6267c",
        "to": "0x60b5cc9c3a6bb42a293cd445d67de23ccda442c3",
        "gas": "0x832eb",
        "value": "0xde0b6b3a7640000",
        "input": "0xdb2bac130000000000000000000000000000000000000000000000000000000000000004000000000000000000000000251d8803f71a8402dd96893e0709588e99f6267c00000000000000000000000000000000000000000000000006f05b59d3b200000000000000000000000000000000000000000000000000000de0b6b3a7640000000000000000000000000000000000000000000000000000000000000000000c00000000000000000000000000000000000000000000000000000000000000c00000000000000000000000000000000000000000000000000000000000000042697066733a2f2f6261666b72656965727066376e6a337a366e797a6b326966743568736470706378786471626d7a62687632786a6b6167766b706962787032796761000000000000000000000000000000000000000000000000000000000000",
        "nonce": "0x19",
        "chainId": "0xc352"
      },
      "additionalContracts": [],
      "isFixedGasLimit": false
    }
  ],
  "receipts": [
    {
      "status": "0x1",
      "cumulativeGasUsed": "0x7163",
      "logs": [],
      "logsBloom": "0x00000000000000000000000000000000000000000000000000000000000000000000000000000000000000000000000000000000000000000000000000000000000000000000000000000000000000000000000000000000000000000000000000000000000000000000000000000000000000000000000000000000000000000000000000000000000000000000000000000000000000000000000000000000000000000000000000000000000000000000000000000000000000000000000000000000000000000000000000000000000000000000000000000000000000000000000000000000000000000000000000000000000000000000000000000000",
      "type": "0x2",
      "transactionHash": "0x6785cfb1a73c6c1b550394783567abe407e56733de08965545094ac62f9c46eb",
      "transactionIndex": "0x0",
      "blockHash": "0x30ef397518236ef37f2b6f55ae5de2c0e053c49de5ea5cb90cf4467a1881537e",
      "blockNumber": "0x10d64b5",
      "gasUsed": "0x7163",
      "effectiveGasPrice": "0x1",
      "from": "0x251d8803f71a8402dd96893e0709588e99f6267c",
      "to": "0x60b5cc9c3a6bb42a293cd445d67de23ccda442c3",
      "contractAddress": null
    },
    {
      "status": "0x1",
      "cumulativeGasUsed": "0x59b29",
      "logs": [
        {
          "address": "0x60b5cc9c3a6bb42a293cd445d67de23ccda442c3",
          "topics": [
            "0xf83bf6113b796610b35e985c4c74d7039cc857a5a0f19e9e2b6034caeaecdfa4",
            "0x0000000000000000000000000000000000000000000000000000000000000000",
            "0x0000000000000000000000000000000000000000000000000000000000000004"
          ],
          "data": "0x000000000000000000000000251d8803f71a8402dd96893e0709588e99f6267c000000000000000000000000251d8803f71a8402dd96893e0709588e99f6267c",
          "blockHash": "0x3e47d81bac75e14c03b5b272cdbe622115361b33184f9d8335be32f144c580cc",
          "blockNumber": "0x10d64b7",
          "transactionHash": "0xd5240b859f5847cf33b9a55ec751376dd0dc5f24194a94446f62f0236013a991",
          "transactionIndex": "0x0",
          "logIndex": "0x0",
          "removed": false
        }
      ],
      "logsBloom": "0x00000000000000000000000000000000000000000000000000000000000000000004000000000000000000000000000000000000000000000000020000000000000000000000000000000000000000000000000000000000000000000000000008000000020000000400000000000800000000000000000000000000000000000000000000000000000000000000000000000000000000000000000000000002000000001000000000000000000000000000000000000000002000000000000000000000000000000010000000000000000000008000000000000000000020000000000000000000000000000000000000000000000000000000000000000000",
      "type": "0x2",
      "transactionHash": "0xd5240b859f5847cf33b9a55ec751376dd0dc5f24194a94446f62f0236013a991",
      "transactionIndex": "0x0",
      "blockHash": "0x3e47d81bac75e14c03b5b272cdbe622115361b33184f9d8335be32f144c580cc",
      "blockNumber": "0x10d64b7",
      "gasUsed": "0x59b29",
      "effectiveGasPrice": "0x1",
      "from": "0x251d8803f71a8402dd96893e0709588e99f6267c",
      "to": "0x60b5cc9c3a6bb42a293cd445d67de23ccda442c3",
      "contractAddress": null
    }
  ],
  "libraries": [],
  "pending": [],
  "returns": {},
  "timestamp": 1745472402,
  "chain": 50002,
  "commit": "0236e55"
}