{
  "transactions": [
    {
      "hash": "0x4422486ba0d3996e8a7c5f501a1109e6a1e400d146cf4651b20e591d61ffb2ff",
      "transactionType": "CALL",
      "contractName": null,
      "contractAddress": "0x6b2c23cf212011bebf015fdf05e0e5414754701c",
      "function": "updateFeeCollector(address)",
      "arguments": [
        "0x8155c2F6F4F40340eD085a6cBCB3d5C7DEE0DfA5"
      ],
      "transaction": {
        "from": "0x251d8803f71a8402dd96893e0709588e99f6267c",
        "to": "0x6b2c23cf212011bebf015fdf05e0e5414754701c",
        "gas": "0x9773",
        "value": "0x0",
        "input": "0xd2c35ce80000000000000000000000008155c2f6f4f40340ed085a6cbcb3d5c7dee0dfa5",
        "nonce": "0x15",
        "chainId": "0xc352"
      },
      "additionalContracts": [],
      "isFixedGasLimit": false
    }
  ],
  "receipts": [
    {
      "status": "0x1",
      "cumulativeGasUsed": "0x6da6",
      "logs": [
        {
          "address": "0x6b2c23cf212011bebf015fdf05e0e5414754701c",
          "topics": [
            "0x5d16ad41baeb009cd23eb8f6c7cde5c2e0cd5acf4a33926ab488875c37c37f38"
          ],
          "data": "0x0000000000000000000000008155c2f6f4f40340ed085a6cbcb3d5c7dee0dfa50000000000000000000000008155c2f6f4f40340ed085a6cbcb3d5c7dee0dfa5",
          "blockHash": "0x807c8baf09942d2e95f5483716c66a31084773a3276c7bafe80f505debddffb5",
          "blockNumber": "0x1082e8f",
          "transactionHash": "0x4422486ba0d3996e8a7c5f501a1109e6a1e400d146cf4651b20e591d61ffb2ff",
          "transactionIndex": "0x0",
          "logIndex": "0x0",
          "removed": false
        }
      ],
      "logsBloom": "0x00000000000100000000800000000000000000000000000000000000000000000000000000000000000000000000000000000000000000000000000000000000000000000000000000000000040000000000000000000000000000000000000000000000000000000000020000000000000000000000000000000000000000000000000000000000000000000000000000000000000000000000000000000100000000000000000000000000000000000000000000000000000000000000000000000000000000000000000000000000000000000000000000000000000000000000000000000000000000000000000000000000000000000000000000010000",
      "type": "0x2",
      "transactionHash": "0x4422486ba0d3996e8a7c5f501a1109e6a1e400d146cf4651b20e591d61ffb2ff",
      "transactionIndex": "0x0",
      "blockHash": "0x807c8baf09942d2e95f5483716c66a31084773a3276c7bafe80f505debddffb5",
      "blockNumber": "0x1082e8f",
      "gasUsed": "0x6da6",
      "effectiveGasPrice": "0x1",
      "from": "0x251d8803f71a8402dd96893e0709588e99f6267c",
      "to": "0x6b2c23cf212011bebf015fdf05e0e5414754701c",
      "contractAddress": null
    }
  ],
  "libraries": [],
  "pending": [],
  "returns": {},
  "timestamp": 1745359743,
  "chain": 50002,
  "commit": "bbe1d2b"
}