{
  "transactions": [
    {
      "hash": "0x10055ae15f501c9bd839127e24989c310e1e0a183687f4fbaf886fd8c7e16aae",
      "transactionType": "CALL",
      "contractName": null,
      "contractAddress": "0x6b2c23cf212011bebf015fdf05e0e5414754701c",
      "function": "addLoanOfficer(address)",
      "arguments": [
        "0x8155c2F6F4F40340eD085a6cBCB3d5C7DEE0DfA5"
      ],
      "transaction": {
        "from": "0x251d8803f71a8402dd96893e0709588e99f6267c",
        "to": "0x6b2c23cf212011bebf015fdf05e0e5414754701c",
        "gas": "0x103ef",
        "value": "0x0",
        "input": "0xfd91b9f10000000000000000000000008155c2f6f4f40340ed085a6cbcb3d5c7dee0dfa5",
        "nonce": "0x13",
        "chainId": "0xc352"
      },
      "additionalContracts": [],
      "isFixedGasLimit": false
    },
    {
      "hash": "0x0a9073634f927c6a64745736c02aac7627b8757f440f69bc966c23c7dfd52958",
      "transactionType": "CALL",
      "contractName": null,
      "contractAddress": "0x6b2c23cf212011bebf015fdf05e0e5414754701c",
      "function": "updateFeeCollector(address)",
      "arguments": [
        "0x8155c2F6F4F40340eD085a6cBCB3d5C7DEE0DfA5"
      ],
      "transaction": {
        "from": "0x251d8803f71a8402dd96893e0709588e99f6267c",
        "to": "0x6b2c23cf212011bebf015fdf05e0e5414754701c",
        "gas": "0x9773",
        "value": "0x0",
        "input": "0xd2c35ce80000000000000000000000008155c2f6f4f40340ed085a6cbcb3d5c7dee0dfa5",
        "nonce": "0x14",
        "chainId": "0xc352"
      },
      "additionalContracts": [],
      "isFixedGasLimit": false
    }
  ],
  "receipts": [
    {
      "status": "0x1",
      "cumulativeGasUsed": "0xbc30",
      "logs": [
        {
          "address": "0x6b2c23cf212011bebf015fdf05e0e5414754701c",
          "topics": [
            "0x51bcb25b10eb62ca35078154e08534af852173c26d0bbb73d1e22012846bd1a2",
            "0x0000000000000000000000008155c2f6f4f40340ed085a6cbcb3d5c7dee0dfa5"
          ],
          "data": "0x",
          "blockHash": "0xd62c8fd8b4853b9f5aee5c5e5a3413673334c165152712e5b0ecb26be2b3d451",
          "blockNumber": "0x1082db4",
          "transactionHash": "0x10055ae15f501c9bd839127e24989c310e1e0a183687f4fbaf886fd8c7e16aae",
          "transactionIndex": "0x0",
          "logIndex": "0x0",
          "removed": false
        }
      ],
      "logsBloom": "0x00000000000000004000000000000000000000000000000000000000000000000000000000000000000000000000000000000000000000000000000000000000000000000000000000000000040800000000000000000000000000000000000000000000000000000001020000000000000000000000000000000000000000000000000000000000000000000000004000000000000000000000000000000000000000000000000000000000000000000000000000000000000000000000000000000000000000000000000000000000000000000000000000000000000000000000000000000000000000000000020000000000000000000800000000010000",
      "type": "0x2",
      "transactionHash": "0x10055ae15f501c9bd839127e24989c310e1e0a183687f4fbaf886fd8c7e16aae",
      "transactionIndex": "0x0",
      "blockHash": "0xd62c8fd8b4853b9f5aee5c5e5a3413673334c165152712e5b0ecb26be2b3d451",
      "blockNumber": "0x1082db4",
      "gasUsed": "0xbc30",
      "effectiveGasPrice": "0x1",
      "from": "0x251d8803f71a8402dd96893e0709588e99f6267c",
      "to": "0x6b2c23cf212011bebf015fdf05e0e5414754701c",
      "contractAddress": null
    },
    {
      "status": "0x1",
      "cumulativeGasUsed": "0x65d6",
      "logs": [
        {
          "address": "0x6b2c23cf212011bebf015fdf05e0e5414754701c",
          "topics": [
            "0x5d16ad41baeb009cd23eb8f6c7cde5c2e0cd5acf4a33926ab488875c37c37f38"
          ],
          "data": "0x0000000000000000000000008155c2f6f4f40340ed085a6cbcb3d5c7dee0dfa50000000000000000000000008155c2f6f4f40340ed085a6cbcb3d5c7dee0dfa5",
          "blockHash": "0xd62c8fd8b4853b9f5aee5c5e5a3413673334c165152712e5b0ecb26be2b3d451",
          "blockNumber": "0x1082db4",
          "transactionHash": "0x0a9073634f927c6a64745736c02aac7627b8757f440f69bc966c23c7dfd52958",
          "transactionIndex": "0x1",
          "logIndex": "0x0",
          "removed": false
        }
      ],
      "logsBloom": "0x00000000000100000000800000000000000000000000000000000000000000000000000000000000000000000000000000000000000000000000000000000000000000000000000000000000040000000000000000000000000000000000000000000000000000000000020000000000000000000000000000000000000000000000000000000000000000000000000000000000000000000000000000000100000000000000000000000000000000000000000000000000000000000000000000000000000000000000000000000000000000000000000000000000000000000000000000000000000000000000000000000000000000000000000000010000",
      "type": "0x2",
      "transactionHash": "0x0a9073634f927c6a64745736c02aac7627b8757f440f69bc966c23c7dfd52958",
      "transactionIndex": "0x1",
      "blockHash": "0xd62c8fd8b4853b9f5aee5c5e5a3413673334c165152712e5b0ecb26be2b3d451",
      "blockNumber": "0x1082db4",
      "gasUsed": "0x65d6",
      "effectiveGasPrice": "0x1",
      "from": "0x251d8803f71a8402dd96893e0709588e99f6267c",
      "to": "0x6b2c23cf212011bebf015fdf05e0e5414754701c",
      "contractAddress": null
    }
  ],
  "libraries": [],
  "pending": [],
  "returns": {},
  "timestamp": 1745359524,
  "chain": 50002,
  "commit": "bbe1d2b"
}