{
  "transactions": [
    {
      "hash": null,
      "transactionType": "CALL",
      "contractName": null,
      "contractAddress": "0xd2dd7e9d3adf3d1adfed1ea5a2771ecf507885e5",
      "function": "listProperty(uint256,bool,bool,uint256,uint256)",
      "arguments": [
        "1",
        "true",
        "true",
        "1000000000000000",
        "2000000000000000"
      ],
      "transaction": {
        "from": "0x251d8803f71a8402dd96893e0709588e99f6267c",
        "to": "0xd2dd7e9d3adf3d1adfed1ea5a2771ecf507885e5",
        "gas": "0x3fa87",
        "value": "0x0",
        "input": "0xf63e6b4300000000000000000000000000000000000000000000000000000000000000010000000000000000000000000000000000000000000000000000000000000001000000000000000000000000000000000000000000000000000000000000000100000000000000000000000000000000000000000000000000038d7ea4c6800000000000000000000000000000000000000000000000000000071afd498d0000",
        "nonce": "0x21",
        "chainId": "0xc352"
      },
      "additionalContracts": [],
      "isFixedGasLimit": false
    }
  ],
  "receipts": [],
  "libraries": [],
  "pending": [],
  "returns": {},
  "timestamp": 1745509379,
  "chain": 50002,
  "commit": "0236e55"
}