{
  "transactions": [
    {
      "hash": "0x7887d4638d26c56062da8fc98fcc0c0e1d74cd1302c6da99cac339eb62bec42e",
      "transactionType": "CALL",
      "contractName": null,
      "contractAddress": "0xd95d1ff6618aee41e431c6a2cfa3d5e8ff3d5f33",
      "function": "mintProperty(address,string,string,uint256,string)",
      "arguments": [
        "0x251d8803f71a8402dD96893E0709588e99F6267c",
        "CADAST_MINT_5",
        "93 Rosa Ln, Mexico",
        "2500000000000000000",
        "ipfs://bafkreih7nhhphdoftyv5vfyqrskdofcrbjbxlqcnblyl4fgxjsnadzes5q"
      ],
      "transaction": {
        "from": "0x251d8803f71a8402dd96893e0709588e99f6267c",
        "to": "0xd95d1ff6618aee41e431c6a2cfa3d5e8ff3d5f33",
        "gas": "0x6a9be",
        "value": "0x0",
        "input": "0x5057ea5f000000000000000000000000251d8803f71a8402dd96893e0709588e99f6267c00000000000000000000000000000000000000000000000000000000000000a000000000000000000000000000000000000000000000000000000000000000e000000000000000000000000000000000000000000000000022b1c8c1227a00000000000000000000000000000000000000000000000000000000000000000120000000000000000000000000000000000000000000000000000000000000000d4341444153545f4d494e545f35000000000000000000000000000000000000000000000000000000000000000000000000000000000000000000000000000012393320526f7361204c6e2c204d657869636f00000000000000000000000000000000000000000000000000000000000000000000000000000000000000000042697066733a2f2f6261666b72656968376e68687068646f66747976357666797172736b646f666372626a62786c71636e626c796c346667786a736e61647a65733571000000000000000000000000000000000000000000000000000000000000",
        "nonce": "0x10",
        "chainId": "0xc352"
      },
      "additionalContracts": [],
      "isFixedGasLimit": false
    },
    {
      "hash": "0x2eccd61b45d054aa959471a9d920b89cf57d230a48b2325921088ccb39bfec57",
      "transactionType": "CALL",
      "contractName": null,
      "contractAddress": "0xd95d1ff6618aee41e431c6a2cfa3d5e8ff3d5f33",
      "function": "transferFrom(address,address,uint256)",
      "arguments": [
        "0x251d8803f71a8402dD96893E0709588e99F6267c",
        "0x251d8803f71a8402dD96893E0709588e99F6267c",
        "1"
      ],
      "transaction": {
        "from": "0x251d8803f71a8402dd96893e0709588e99f6267c",
        "to": "0xd95d1ff6618aee41e431c6a2cfa3d5e8ff3d5f33",
        "gas": "0xbb49",
        "value": "0x0",
        "input": "0x23b872dd000000000000000000000000251d8803f71a8402dd96893e0709588e99f6267c000000000000000000000000251d8803f71a8402dd96893e0709588e99f6267c0000000000000000000000000000000000000000000000000000000000000001",
        "nonce": "0x11",
        "chainId": "0xc352"
      },
      "additionalContracts": [],
      "isFixedGasLimit": false
    },
    {
      "hash": "0x5b8d728d68e0d9be218ffba803970a7ab9c10447561f86b6b07fb35d13378b96",
      "transactionType": "CALL",
      "contractName": null,
      "contractAddress": "0xd95d1ff6618aee41e431c6a2cfa3d5e8ff3d5f33",
      "function": "updatePropertyValuation(uint256,uint256)",
      "arguments": [
        "5",
        "6000000000000000000"
      ],
      "transaction": {
        "from": "0x251d8803f71a8402dd96893e0709588e99f6267c",
        "to": "0xd95d1ff6618aee41e431c6a2cfa3d5e8ff3d5f33",
        "gas": "0xcbbf",
        "value": "0x0",
        "input": "0x38206125000000000000000000000000000000000000000000000000000000000000000500000000000000000000000000000000000000000000000053444835ec580000",
        "nonce": "0x12",
        "chainId": "0xc352"
      },
      "additionalContracts": [],
      "isFixedGasLimit": false
    }
  ],
  "receipts": [
    {
      "status": "0x1",
      "cumulativeGasUsed": "0x4d2ee",
      "logs": [
        {
          "address": "0xd95d1ff6618aee41e431c6a2cfa3d5e8ff3d5f33",
          "topics": [
            "0xddf252ad1be2c89b69c2b068fc378daa952ba7f163c4a11628f55a4df523b3ef",
            "0x0000000000000000000000000000000000000000000000000000000000000000",
            "0x000000000000000000000000251d8803f71a8402dd96893e0709588e99f6267c",
            "0x0000000000000000000000000000000000000000000000000000000000000005"
          ],
          "data": "0x",
          "blockHash": "0xb62d9f40dd014ea490a7004a369a1a41ffb3c41525e19f87deb370d68a88ffb2",
          "blockNumber": "0x1081ad1",
          "transactionHash": "0x7887d4638d26c56062da8fc98fcc0c0e1d74cd1302c6da99cac339eb62bec42e",
          "transactionIndex": "0x0",
          "logIndex": "0x0",
          "removed": false
        },
        {
          "address": "0xd95d1ff6618aee41e431c6a2cfa3d5e8ff3d5f33",
          "topics": [
            "0xd7aef3579c13480da55b8f8a0f1d863890a61c8b3cfd308c1f04705a3cdbcaaa",
            "0x0000000000000000000000000000000000000000000000000000000000000005",
            "0x000000000000000000000000251d8803f71a8402dd96893e0709588e99f6267c"
          ],
          "data": "0x0000000000000000000000000000000000000000000000000000000000000020000000000000000000000000000000000000000000000000000000000000000d4341444153545f4d494e545f3500000000000000000000000000000000000000",
          "blockHash": "0xb62d9f40dd014ea490a7004a369a1a41ffb3c41525e19f87deb370d68a88ffb2",
          "blockNumber": "0x1081ad1",
          "transactionHash": "0x7887d4638d26c56062da8fc98fcc0c0e1d74cd1302c6da99cac339eb62bec42e",
          "transactionIndex": "0x0",
          "logIndex": "0x1",
          "removed": false
        }
      ],
      "logsBloom": "0x00000000000000000000000000000000000000000000000000000000400000000000000040000000000000000000000000000000000000000000000000000000000010000000000000400008000000000000000000000000000000000000000000000000020000000000000000000800000000000000000080000010000000000000000000000200000000000020001008000800000000000000000000000000000000000000000000000000000000000000000000000000000000000000000000000002000000000000000000000000000000000000000000000000000020000000000000020000000000000000000000080000000000000000000000000000",
      "type": "0x2",
      "transactionHash": "0x7887d4638d26c56062da8fc98fcc0c0e1d74cd1302c6da99cac339eb62bec42e",
      "transactionIndex": "0x0",
      "blockHash": "0xb62d9f40dd014ea490a7004a369a1a41ffb3c41525e19f87deb370d68a88ffb2",
      "blockNumber": "0x1081ad1",
      "gasUsed": "0x4d2ee",
      "effectiveGasPrice": "0x1",
      "from": "0x251d8803f71a8402dd96893e0709588e99f6267c",
      "to": "0xd95d1ff6618aee41e431c6a2cfa3d5e8ff3d5f33",
      "contractAddress": null
    },
    {
      "status": "0x1",
      "cumulativeGasUsed": "0x9288",
      "logs": [
        {
          "address": "0xd95d1ff6618aee41e431c6a2cfa3d5e8ff3d5f33",
          "topics": [
            "0x8c5be1e5ebec7d5bd14f71427d1e84f3dd0314c0f7b2291e5b200ac8c7c3b925",
            "0x000000000000000000000000251d8803f71a8402dd96893e0709588e99f6267c",
            "0x0000000000000000000000000000000000000000000000000000000000000000",
            "0x0000000000000000000000000000000000000000000000000000000000000001"
          ],
          "data": "0x",
          "blockHash": "0xa548b7fb952d240a4ca98519c0746c14e244cd28789ad6d605388093edb7b7ab",
          "blockNumber": "0x1081ad3",
          "transactionHash": "0x2eccd61b45d054aa959471a9d920b89cf57d230a48b2325921088ccb39bfec57",
          "transactionIndex": "0x0",
          "logIndex": "0x0",
          "removed": false
        },
        {
          "address": "0xd95d1ff6618aee41e431c6a2cfa3d5e8ff3d5f33",
          "topics": [
            "0xddf252ad1be2c89b69c2b068fc378daa952ba7f163c4a11628f55a4df523b3ef",
            "0x000000000000000000000000251d8803f71a8402dd96893e0709588e99f6267c",
            "0x000000000000000000000000251d8803f71a8402dd96893e0709588e99f6267c",
            "0x0000000000000000000000000000000000000000000000000000000000000001"
          ],
          "data": "0x",
          "blockHash": "0xa548b7fb952d240a4ca98519c0746c14e244cd28789ad6d605388093edb7b7ab",
          "blockNumber": "0x1081ad3",
          "transactionHash": "0x2eccd61b45d054aa959471a9d920b89cf57d230a48b2325921088ccb39bfec57",
          "transactionIndex": "0x0",
          "logIndex": "0x1",
          "removed": false
        }
      ],
      "logsBloom": "0x00000000000000000000000000000000000000000000000000000000400000000000000040000000000000000000000000000000000000000000000000240000000000000000000000400008000000000000000000040000000000000000000000000000020000000000000000000800000000000000000080000010000000000000000000000000000000000000000000000000000000000000000000000000020000000000000000000000000000000000000000000000000000000000000000000002000000000000000000000000000000000000000000000000000060000010000000020000000000000000000000080000000000000000000000000000",
      "type": "0x2",
      "transactionHash": "0x2eccd61b45d054aa959471a9d920b89cf57d230a48b2325921088ccb39bfec57",
      "transactionIndex": "0x0",
      "blockHash": "0xa548b7fb952d240a4ca98519c0746c14e244cd28789ad6d605388093edb7b7ab",
      "blockNumber": "0x1081ad3",
      "gasUsed": "0x9288",
      "effectiveGasPrice": "0x1",
      "from": "0x251d8803f71a8402dd96893e0709588e99f6267c",
      "to": "0xd95d1ff6618aee41e431c6a2cfa3d5e8ff3d5f33",
      "contractAddress": null
    },
    {
      "status": "0x1",
      "cumulativeGasUsed": "0x8b51",
      "logs": [
        {
          "address": "0xd95d1ff6618aee41e431c6a2cfa3d5e8ff3d5f33",
          "topics": [
            "0xc7d6594ab03628ef3f6852d4225a8d2b1461544207142d9c0fba9747a789ade5",
            "0x0000000000000000000000000000000000000000000000000000000000000005"
          ],
          "data": "0x000000000000000000000000000000000000000000000000000000000000004000000000000000000000000000000000000000000000000053444835ec580000000000000000000000000000000000000000000000000000000000000000000976616c756174696f6e0000000000000000000000000000000000000000000000",
          "blockHash": "0xa548b7fb952d240a4ca98519c0746c14e244cd28789ad6d605388093edb7b7ab",
          "blockNumber": "0x1081ad3",
          "transactionHash": "0x5b8d728d68e0d9be218ffba803970a7ab9c10447561f86b6b07fb35d13378b96",
          "transactionIndex": "0x1",
          "logIndex": "0x0",
          "removed": false
        }
      ],
      "logsBloom": "0x00000000004000000000000000000000000000001000000000000000000000000000000040000000000000000000000000000000000000000000000000000000000010000000000000000000000000000000000000000000000000000000000000000000000000000000000000000000200000000000000080000000000000000000000000000000000000000000001000000800000000000000000000000000000000000000000000000000000000000000000000000000000000000000000000000000000000000000000000000000000000000000000000000000000000000000000000000000000000000000000000080000000000000000000000000000",
      "type": "0x2",
      "transactionHash": "0x5b8d728d68e0d9be218ffba803970a7ab9c10447561f86b6b07fb35d13378b96",
      "transactionIndex": "0x1",
      "blockHash": "0xa548b7fb952d240a4ca98519c0746c14e244cd28789ad6d605388093edb7b7ab",
      "blockNumber": "0x1081ad3",
      "gasUsed": "0x8b51",
      "effectiveGasPrice": "0x1",
      "from": "0x251d8803f71a8402dd96893e0709588e99f6267c",
      "to": "0xd95d1ff6618aee41e431c6a2cfa3d5e8ff3d5f33",
      "contractAddress": null
    }
  ],
  "libraries": [],
  "pending": [],
  "returns": {},
  "timestamp": 1745354538,
  "chain": 50002,
  "commit": "bbe1d2b"
}