{
  "transactions": [
    {
      "hash": "0x600e0e63926c0c787560ac3bcaab358640630fc6e5ed86a56e769e0897d64122",
      "transactionType": "CALL",
      "contractName": null,
      "contractAddress": "0xd95d1ff6618aee41e431c6a2cfa3d5e8ff3d5f33",
      "function": "mintProperty(address,string,string,uint256,string)",
      "arguments": [
        "0x251d8803f71a8402dD96893E0709588e99F6267c",
        "CADAST_SCRIPT_MINT_1",
        "789 Pine Ln, El Salvador",
        "1000000000000000000",
        "ipfs://bafkreidbxrryqrfgio2q4xugwbt3pvtuykzqsecswu6umnxtzxuqxeejyu"
      ],
      "transaction": {
        "from": "0x251d8803f71a8402dd96893e0709588e99f6267c",
        "to": "0xd95d1ff6618aee41e431c6a2cfa3d5e8ff3d5f33",
        "gas": "0x70ef9",
        "value": "0x0",
        "input": "0x5057ea5f000000000000000000000000251d8803f71a8402dd96893e0709588e99f6267c00000000000000000000000000000000000000000000000000000000000000a000000000000000000000000000000000000000000000000000000000000000e00000000000000000000000000000000000000000000000000de0b6b3a7640000000000000000000000000000000000000000000000000000000000000000012000000000000000000000000000000000000000000000000000000000000000144341444153545f5343524950545f4d494e545f3100000000000000000000000000000000000000000000000000000000000000000000000000000000000000183738392050696e65204c6e2c20456c2053616c7661646f7200000000000000000000000000000000000000000000000000000000000000000000000000000042697066733a2f2f6261666b72656964627872727971726667696f3271347875677762743370767475796b7a7173656373777536756d6e78747a7875717865656a7975000000000000000000000000000000000000000000000000000000000000",
        "nonce": "0xd",
        "chainId": "0xc352"
      },
      "additionalContracts": [],
      "isFixedGasLimit": false
    },
    {
      "hash": "0x3f434ca6b5badbd23ba91efcafe2127e59a1d2a0d826056a357bb24479699dc0",
      "transactionType": "CALL",
      "contractName": null,
      "contractAddress": "0xd95d1ff6618aee41e431c6a2cfa3d5e8ff3d5f33",
      "function": "transferFrom(address,address,uint256)",
      "arguments": [
        "0x251d8803f71a8402dD96893E0709588e99F6267c",
        "0x251d8803f71a8402dD96893E0709588e99F6267c",
        "1"
      ],
      "transaction": {
        "from": "0x251d8803f71a8402dd96893e0709588e99f6267c",
        "to": "0xd95d1ff6618aee41e431c6a2cfa3d5e8ff3d5f33",
        "gas": "0xbb49",
        "value": "0x0",
        "input": "0x23b872dd000000000000000000000000251d8803f71a8402dd96893e0709588e99f6267c000000000000000000000000251d8803f71a8402dd96893e0709588e99f6267c0000000000000000000000000000000000000000000000000000000000000001",
        "nonce": "0xe",
        "chainId": "0xc352"
      },
      "additionalContracts": [],
      "isFixedGasLimit": false
    },
    {
      "hash": "0x6e3efe309578b75cdfc3cb7de27a805eba86057cd0400ea2b4d350fbe973e6c1",
      "transactionType": "CALL",
      "contractName": null,
      "contractAddress": "0xd95d1ff6618aee41e431c6a2cfa3d5e8ff3d5f33",
      "function": "updatePropertyValuation(uint256,uint256)",
      "arguments": [
        "1",
        "2000000000000000000"
      ],
      "transaction": {
        "from": "0x251d8803f71a8402dd96893e0709588e99f6267c",
        "to": "0xd95d1ff6618aee41e431c6a2cfa3d5e8ff3d5f33",
        "gas": "0xdbbe",
        "value": "0x0",
        "input": "0x3820612500000000000000000000000000000000000000000000000000000000000000010000000000000000000000000000000000000000000000001bc16d674ec80000",
        "nonce": "0xf",
        "chainId": "0xc352"
      },
      "additionalContracts": [],
      "isFixedGasLimit": false
    }
  ],
  "receipts": [
    {
      "status": "0x1",
      "cumulativeGasUsed": "0x4d38a",
      "logs": [
        {
          "address": "0xd95d1ff6618aee41e431c6a2cfa3d5e8ff3d5f33",
          "topics": [
            "0xddf252ad1be2c89b69c2b068fc378daa952ba7f163c4a11628f55a4df523b3ef",
            "0x0000000000000000000000000000000000000000000000000000000000000000",
            "0x000000000000000000000000251d8803f71a8402dd96893e0709588e99f6267c",
            "0x0000000000000000000000000000000000000000000000000000000000000004"
          ],
          "data": "0x",
          "blockHash": "0xd609ddd3de8c155d996d37cc4e98e582ed5b2a2a1e15fd3df8f455543550de8c",
          "blockNumber": "0x10749f1",
          "transactionHash": "0x600e0e63926c0c787560ac3bcaab358640630fc6e5ed86a56e769e0897d64122",
          "transactionIndex": "0x0",
          "logIndex": "0x0",
          "removed": false
        },
        {
          "address": "0xd95d1ff6618aee41e431c6a2cfa3d5e8ff3d5f33",
          "topics": [
            "0xd7aef3579c13480da55b8f8a0f1d863890a61c8b3cfd308c1f04705a3cdbcaaa",
            "0x0000000000000000000000000000000000000000000000000000000000000004",
            "0x000000000000000000000000251d8803f71a8402dd96893e0709588e99f6267c"
          ],
          "data": "0x000000000000000000000000000000000000000000000000000000000000002000000000000000000000000000000000000000000000000000000000000000144341444153545f5343524950545f4d494e545f31000000000000000000000000",
          "blockHash": "0xd609ddd3de8c155d996d37cc4e98e582ed5b2a2a1e15fd3df8f455543550de8c",
          "blockNumber": "0x10749f1",
          "transactionHash": "0x600e0e63926c0c787560ac3bcaab358640630fc6e5ed86a56e769e0897d64122",
          "transactionIndex": "0x0",
          "logIndex": "0x1",
          "removed": false
        }
      ],
      "logsBloom": "0x00000000000000000000000000000000000000000000000000000000400000000000000040000000000000000000000000000000000000000000000000000000000000000000000000400008000000000000000000000000000000000000000008000000020000000000000000000800000000000000000080000010000000000000000000000200000000000020000008000000000000000000000000000000000000000000000000000000000000000000000000000000002000000000000000000002000000000000000000000000000000008000000000000000000020000000000000020000000000000000000000080000000000000000000000000000",
      "type": "0x2",
      "transactionHash": "0x600e0e63926c0c787560ac3bcaab358640630fc6e5ed86a56e769e0897d64122",
      "transactionIndex": "0x0",
      "blockHash": "0xd609ddd3de8c155d996d37cc4e98e582ed5b2a2a1e15fd3df8f455543550de8c",
      "blockNumber": "0x10749f1",
      "gasUsed": "0x4d38a",
      "effectiveGasPrice": "0x1",
      "from": "0x251d8803f71a8402dd96893e0709588e99f6267c",
      "to": "0xd95d1ff6618aee41e431c6a2cfa3d5e8ff3d5f33",
      "contractAddress": null
    },
    {
      "status": "0x1",
      "cumulativeGasUsed": "0x9288",
      "logs": [
        {
          "address": "0xd95d1ff6618aee41e431c6a2cfa3d5e8ff3d5f33",
          "topics": [
            "0x8c5be1e5ebec7d5bd14f71427d1e84f3dd0314c0f7b2291e5b200ac8c7c3b925",
            "0x000000000000000000000000251d8803f71a8402dd96893e0709588e99f6267c",
            "0x0000000000000000000000000000000000000000000000000000000000000000",
            "0x0000000000000000000000000000000000000000000000000000000000000001"
          ],
          "data": "0x",
          "blockHash": "0x415e4777b565d1b63c25f6ff4863b2b460c627b16dbdcf3ddba32720db6c2655",
          "blockNumber": "0x10749f2",
          "transactionHash": "0x3f434ca6b5badbd23ba91efcafe2127e59a1d2a0d826056a357bb24479699dc0",
          "transactionIndex": "0x0",
          "logIndex": "0x0",
          "removed": false
        },
        {
          "address": "0xd95d1ff6618aee41e431c6a2cfa3d5e8ff3d5f33",
          "topics": [
            "0xddf252ad1be2c89b69c2b068fc378daa952ba7f163c4a11628f55a4df523b3ef",
            "0x000000000000000000000000251d8803f71a8402dd96893e0709588e99f6267c",
            "0x000000000000000000000000251d8803f71a8402dd96893e0709588e99f6267c",
            "0x0000000000000000000000000000000000000000000000000000000000000001"
          ],
          "data": "0x",
          "blockHash": "0x415e4777b565d1b63c25f6ff4863b2b460c627b16dbdcf3ddba32720db6c2655",
          "blockNumber": "0x10749f2",
          "transactionHash": "0x3f434ca6b5badbd23ba91efcafe2127e59a1d2a0d826056a357bb24479699dc0",
          "transactionIndex": "0x0",
          "logIndex": "0x1",
          "removed": false
        }
      ],
      "logsBloom": "0x00000000000000000000000000000000000000000000000000000000400000000000000040000000000000000000000000000000000000000000000000240000000000000000000000400008000000000000000000040000000000000000000000000000020000000000000000000800000000000000000080000010000000000000000000000000000000000000000000000000000000000000000000000000020000000000000000000000000000000000000000000000000000000000000000000002000000000000000000000000000000000000000000000000000060000010000000020000000000000000000000080000000000000000000000000000",
      "type": "0x2",
      "transactionHash": "0x3f434ca6b5badbd23ba91efcafe2127e59a1d2a0d826056a357bb24479699dc0",
      "transactionIndex": "0x0",
      "blockHash": "0x415e4777b565d1b63c25f6ff4863b2b460c627b16dbdcf3ddba32720db6c2655",
      "blockNumber": "0x10749f2",
      "gasUsed": "0x9288",
      "effectiveGasPrice": "0x1",
      "from": "0x251d8803f71a8402dd96893e0709588e99f6267c",
      "to": "0xd95d1ff6618aee41e431c6a2cfa3d5e8ff3d5f33",
      "contractAddress": null
    },
    {
      "status": "0x1",
      "cumulativeGasUsed": "0x8e71",
      "logs": [
        {
          "address": "0xd95d1ff6618aee41e431c6a2cfa3d5e8ff3d5f33",
          "topics": [
            "0xc7d6594ab03628ef3f6852d4225a8d2b1461544207142d9c0fba9747a789ade5",
            "0x0000000000000000000000000000000000000000000000000000000000000001"
          ],
          "data": "0x00000000000000000000000000000000000000000000000000000000000000400000000000000000000000000000000000000000000000001bc16d674ec80000000000000000000000000000000000000000000000000000000000000000000976616c756174696f6e0000000000000000000000000000000000000000000000",
          "blockHash": "0x415e4777b565d1b63c25f6ff4863b2b460c627b16dbdcf3ddba32720db6c2655",
          "blockNumber": "0x10749f2",
          "transactionHash": "0x6e3efe309578b75cdfc3cb7de27a805eba86057cd0400ea2b4d350fbe973e6c1",
          "transactionIndex": "0x1",
          "logIndex": "0x0",
          "removed": false
        }
      ],
      "logsBloom": "0x00000000004000000000000000000000000000001000000000000000000000000000000040000000000000000000000000000000000000000000000000040000000000000000000000000000000000000000000000040000000000000000000000000000000000000000000000000000200000000000000080000000000000000000000000000000000000000000000000000000000000000000000000000000000000000000000000000000000000000000000000000000000000000000000000000000000000000000000000000000000000000000000000000000000040000000000000000000000000000000000000080000000000000000000000000000",
      "type": "0x2",
      "transactionHash": "0x6e3efe309578b75cdfc3cb7de27a805eba86057cd0400ea2b4d350fbe973e6c1",
      "transactionIndex": "0x1",
      "blockHash": "0x415e4777b565d1b63c25f6ff4863b2b460c627b16dbdcf3ddba32720db6c2655",
      "blockNumber": "0x10749f2",
      "gasUsed": "0x8e71",
      "effectiveGasPrice": "0x1",
      "from": "0x251d8803f71a8402dd96893e0709588e99f6267c",
      "to": "0xd95d1ff6618aee41e431c6a2cfa3d5e8ff3d5f33",
      "contractAddress": null
    }
  ],
  "libraries": [],
  "pending": [],
  "returns": {},
  "timestamp": 1745300495,
  "chain": 50002,
  "commit": "bbe1d2b"
}