{
  "transactions": [
    {
      "hash": "0xbb32ec9eff2d875af2ae4e92156d78533f91b433b5f75ccf747f851ba3250e28",
      "transactionType": "CALL",
      "contractName": null,
      "contractAddress": "0xd95d1ff6618aee41e431c6a2cfa3d5e8ff3d5f33",
      "function": "mintProperty(address,string,string,uint256,string)",
      "arguments": [
        "0x251d8803f71a8402dD96893E0709588e99F6267c",
        "ES-SV-LL-002",
        "Santa Tecla, La Libertad, El Salvador",
        "75000000000000000000",
        "ipfs://QmExample2"
      ],
      "transaction": {
        "from": "0x251d8803f71a8402dd96893e0709588e99f6267c",
        "to": "0xd95d1ff6618aee41e431c6a2cfa3d5e8ff3d5f33",
        "gas": "0x68c88",
        "value": "0x0",
        "input": "0x5057ea5f000000000000000000000000251d8803f71a8402dd96893e0709588e99f6267c00000000000000000000000000000000000000000000000000000000000000a000000000000000000000000000000000000000000000000000000000000000e000000000000000000000000000000000000000000000000410d586a20a4c00000000000000000000000000000000000000000000000000000000000000000140000000000000000000000000000000000000000000000000000000000000000c45532d53562d4c4c2d3030320000000000000000000000000000000000000000000000000000000000000000000000000000000000000000000000000000002553616e7461205465636c612c204c61204c696265727461642c20456c2053616c7661646f720000000000000000000000000000000000000000000000000000000000000000000000000000000000000000000000000000000000000000000011697066733a2f2f516d4578616d706c6532000000000000000000000000000000",
        "nonce": "0x3",
        "chainId": "0xc352"
      },
      "additionalContracts": [],
      "isFixedGasLimit": false
    }
  ],
  "receipts": [],
  "libraries": [],
  "pending": [
    "0xbb32ec9eff2d875af2ae4e92156d78533f91b433b5f75ccf747f851ba3250e28"
  ],
  "returns": {},
  "timestamp": 1745037702,
  "chain": 50002,
  "commit": "9426702"
}