{
  "transactions": [
    {
      "hash": "0xcff60d534a4691729e3c54e4147d57d90117d43d1eac7aa7ae8ac28b5081036f",
      "transactionType": "CALL",
      "contractName": null,
      "contractAddress": "0x407b230d1439a83ed81577009e2118e7a4d50694",
      "function": "setTokenPrice(uint256)",
      "arguments": [
        "1000000000000000"
      ],
      "transaction": {
        "from": "0x251d8803f71a8402dd96893e0709588e99f6267c",
        "to": "0x407b230d1439a83ed81577009e2118e7a4d50694",
        "gas": "0x95a1",
        "value": "0x0",
        "input": "0x6a61e5fc00000000000000000000000000000000000000000000000000038d7ea4c68000",
        "nonce": "0x1c",
        "chainId": "0xc352"
      },
      "additionalContracts": [],
      "isFixedGasLimit": false
    },
    {
      "hash": "0x34421dc4490fce68bea22a8d99edc51d38dc8ca5dc776528f9f7f09d36ef427f",
      "transactionType": "CALL",
      "contractName": null,
      "contractAddress": "0x407b230d1439a83ed81577009e2118e7a4d50694",
      "function": "setAnnualYieldRate(uint256)",
      "arguments": [
        "600"
      ],
      "transaction": {
        "from": "0x251d8803f71a8402dd96893e0709588e99f6267c",
        "to": "0x407b230d1439a83ed81577009e2118e7a4d50694",
        "gas": "0xa5e7",
        "value": "0x0",
        "input": "0xc3e2ca410000000000000000000000000000000000000000000000000000000000000258",
        "nonce": "0x1d",
        "chainId": "0xc352"
      },
      "additionalContracts": [],
      "isFixedGasLimit": false
    },
    {
      "hash": "0x6193cc4082e0e89daeb4536a347f91e5e102846cc0840822ccca0e7ad2953b3e",
      "transactionType": "CALL",
      "contractName": null,
      "contractAddress": "0x407b230d1439a83ed81577009e2118e7a4d50694",
      "function": "setYieldDistributionPeriod(uint256)",
      "arguments": [
        "604800"
      ],
      "transaction": {
        "from": "0x251d8803f71a8402dd96893e0709588e99f6267c",
        "to": "0x407b230d1439a83ed81577009e2118e7a4d50694",
        "gas": "0xafbb",
        "value": "0x0",
        "input": "0xbed4a7c10000000000000000000000000000000000000000000000000000000000093a80",
        "nonce": "0x1e",
        "chainId": "0xc352"
      },
      "additionalContracts": [],
      "isFixedGasLimit": false
    },
    {
      "hash": "0x9ebb8f51604ba9a697f9795e115a693f42060eed8a6f1defb3a197fd1ca282c5",
      "transactionType": "CALL",
      "contractName": null,
      "contractAddress": "0x407b230d1439a83ed81577009e2118e7a4d50694",
      "function": "setTransferLimits(uint256,uint256)",
      "arguments": [
        "1000",
        "500"
      ],
      "transaction": {
        "from": "0x251d8803f71a8402dd96893e0709588e99f6267c",
        "to": "0x407b230d1439a83ed81577009e2118e7a4d50694",
        "gas": "0xc13b",
        "value": "0x0",
        "input": "0x75ec49b700000000000000000000000000000000000000000000000000000000000003e800000000000000000000000000000000000000000000000000000000000001f4",
        "nonce": "0x1f",
        "chainId": "0xc352"
      },
      "additionalContracts": [],
      "isFixedGasLimit": false
    },
    {
      "hash": "0x485e3cfd5abe65e1a997e440c1361ab870a5b0374d03edfe0a22c0b9aac8e9f0",
      "transactionType": "CALL",
      "contractName": null,
      "contractAddress": "0x407b230d1439a83ed81577009e2118e7a4d50694",
      "function": "setPropertyReference(address,uint256)",
      "arguments": [
        "0xD95d1FF6618AEE41e431C6A2cfa3D5e8ff3d5f33",
        "1"
      ],
      "transaction": {
        "from": "0x251d8803f71a8402dd96893e0709588e99f6267c",
        "to": "0x407b230d1439a83ed81577009e2118e7a4d50694",
        "gas": "0x17905",
        "value": "0x0",
        "input": "0x2b37472b000000000000000000000000d95d1ff6618aee41e431c6a2cfa3d5e8ff3d5f330000000000000000000000000000000000000000000000000000000000000001",
        "nonce": "0x20",
        "chainId": "0xc352"
      },
      "additionalContracts": [],
      "isFixedGasLimit": false
    },
    {
      "hash": "0x31d6937c49905f0ae8d0bb8088841282dc8eb202c13d27dca21a8ddaf057741d",
      "transactionType": "CALL",
      "contractName": null,
      "contractAddress": "0x407b230d1439a83ed81577009e2118e7a4d50694",
      "function": "setTransferLimitExempt(address,bool)",
      "arguments": [
        "0x251d8803f71a8402dD96893E0709588e99F6267c",
        "true"
      ],
      "transaction": {
        "from": "0x251d8803f71a8402dd96893e0709588e99f6267c",
        "to": "0x407b230d1439a83ed81577009e2118e7a4d50694",
        "gas": "0x9845",
        "value": "0x0",
        "input": "0x42ab9b26000000000000000000000000251d8803f71a8402dd96893e0709588e99f6267c0000000000000000000000000000000000000000000000000000000000000001",
        "nonce": "0x21",
        "chainId": "0xc352"
      },
      "additionalContracts": [],
      "isFixedGasLimit": false
    },
    {
      "hash": "0xd1ca184217afed49c006245cbc8497f33d8b85aa8be1cb87a11fe219844ada35",
      "transactionType": "CALL",
      "contractName": null,
      "contractAddress": "0x407b230d1439a83ed81577009e2118e7a4d50694",
      "function": "grantRole(bytes32,address)",
      "arguments": [
        "0x470f4f1717679395b6a9e0700797bfeeaa970f1643e72f5684d687c0be10fe27",
        "0x251d8803f71a8402dD96893E0709588e99F6267c"
      ],
      "transaction": {
        "from": "0x251d8803f71a8402dd96893e0709588e99f6267c",
        "to": "0x407b230d1439a83ed81577009e2118e7a4d50694",
        "gas": "0xa6d4",
        "value": "0x0",
        "input": "0x2f2ff15d470f4f1717679395b6a9e0700797bfeeaa970f1643e72f5684d687c0be10fe27000000000000000000000000251d8803f71a8402dd96893e0709588e99f6267c",
        "nonce": "0x22",
        "chainId": "0xc352"
      },
      "additionalContracts": [],
      "isFixedGasLimit": false
    },
    {
      "hash": "0xaf5816a3b0055a58bde015a163a081b1d45725c022f67b4a38ebc22b156e1149",
      "transactionType": "CALL",
      "contractName": null,
      "contractAddress": "0x407b230d1439a83ed81577009e2118e7a4d50694",
      "function": "revokeRole(bytes32,address)",
      "arguments": [
        "0x470f4f1717679395b6a9e0700797bfeeaa970f1643e72f5684d687c0be10fe27",
        "0x251d8803f71a8402dD96893E0709588e99F6267c"
      ],
      "transaction": {
        "from": "0x251d8803f71a8402dd96893e0709588e99f6267c",
        "to": "0x407b230d1439a83ed81577009e2118e7a4d50694",
        "gas": "0xa245",
        "value": "0x0",
        "input": "0xd547741f470f4f1717679395b6a9e0700797bfeeaa970f1643e72f5684d687c0be10fe27000000000000000000000000251d8803f71a8402dd96893e0709588e99f6267c",
        "nonce": "0x23",
        "chainId": "0xc352"
      },
      "additionalContracts": [],
      "isFixedGasLimit": false
    }
  ],
  "receipts": [],
  "libraries": [],
  "pending": [
    "0xcff60d534a4691729e3c54e4147d57d90117d43d1eac7aa7ae8ac28b5081036f",
    "0x34421dc4490fce68bea22a8d99edc51d38dc8ca5dc776528f9f7f09d36ef427f",
    "0x6193cc4082e0e89daeb4536a347f91e5e102846cc0840822ccca0e7ad2953b3e",
    "0x9ebb8f51604ba9a697f9795e115a693f42060eed8a6f1defb3a197fd1ca282c5",
    "0x485e3cfd5abe65e1a997e440c1361ab870a5b0374d03edfe0a22c0b9aac8e9f0",
    "0x31d6937c49905f0ae8d0bb8088841282dc8eb202c13d27dca21a8ddaf057741d",
    "0xd1ca184217afed49c006245cbc8497f33d8b85aa8be1cb87a11fe219844ada35",
    "0xaf5816a3b0055a58bde015a163a081b1d45725c022f67b4a38ebc22b156e1149"
  ],
  "returns": {},
  "timestamp": 1745477676,
  "chain": 50002,
  "commit": "0236e55"
}